{
  "_format": "hh-sol-artifact-1",
  "contractName": "ProofRegister",
  "sourceName": "contracts/ProofRegister.sol",
  "abi": [
    {
      "inputs": [
        {
          "internalType": "address",
          "name": "_addy",
          "type": "address"
        }
      ],
      "stateMutability": "nonpayable",
      "type": "constructor"
    },
    {
      "anonymous": false,
      "inputs": [
        {
          "indexed": true,
          "internalType": "address",
          "name": "previousOwner",
          "type": "address"
        },
        {
          "indexed": true,
          "internalType": "address",
          "name": "newOwner",
          "type": "address"
        }
      ],
      "name": "OwnershipTransferred",
      "type": "event"
    },
    {
      "anonymous": false,
      "inputs": [
        {
          "indexed": true,
          "internalType": "bytes32",
          "name": "_matchee1",
          "type": "bytes32"
        },
        {
          "indexed": true,
          "internalType": "bytes32",
          "name": "_matchee2",
          "type": "bytes32"
        }
      ],
      "name": "ProofRegistered",
      "type": "event"
    },
    {
      "anonymous": false,
      "inputs": [
        {
          "indexed": true,
          "internalType": "address",
          "name": "_addy",
          "type": "address"
        },
        {
          "indexed": true,
          "internalType": "bool",
          "name": "_approved",
          "type": "bool"
        }
      ],
      "name": "WhitelistUpdated",
      "type": "event"
    },
    {
      "inputs": [],
      "name": "owner",
      "outputs": [
        {
          "internalType": "address",
          "name": "",
          "type": "address"
        }
      ],
      "stateMutability": "view",
      "type": "function"
    },
    {
      "inputs": [],
      "name": "renounceOwnership",
      "outputs": [],
      "stateMutability": "nonpayable",
      "type": "function"
    },
    {
      "inputs": [
        {
          "internalType": "address",
          "name": "newOwner",
          "type": "address"
        }
      ],
      "name": "transferOwnership",
      "outputs": [],
      "stateMutability": "nonpayable",
      "type": "function"
    },
    {
      "inputs": [
        {
          "internalType": "address",
          "name": "_addy",
          "type": "address"
        },
        {
          "internalType": "bool",
          "name": "_approved",
          "type": "bool"
        }
      ],
      "name": "updateWhitelist",
      "outputs": [],
      "stateMutability": "nonpayable",
      "type": "function"
    },
    {
      "inputs": [
        {
          "internalType": "bytes",
          "name": "_proof",
          "type": "bytes"
        },
        {
          "internalType": "bytes32",
          "name": "_matchee1",
          "type": "bytes32"
        },
        {
          "internalType": "bytes32",
          "name": "_matchee2",
          "type": "bytes32"
        }
      ],
      "name": "verifyAndRegister",
      "outputs": [],
      "stateMutability": "nonpayable",
      "type": "function"
    }
  ],
  "bytecode": "0x608060405234801561001057600080fd5b50604051610ab2380380610ab2833981810160405281019061003291906101c4565b61004e61004361009560201b60201c565b61009d60201b60201c565b80600160006101000a81548173ffffffffffffffffffffffffffffffffffffffff021916908373ffffffffffffffffffffffffffffffffffffffff160217905550506101f1565b600033905090565b60008060009054906101000a900473ffffffffffffffffffffffffffffffffffffffff169050816000806101000a81548173ffffffffffffffffffffffffffffffffffffffff021916908373ffffffffffffffffffffffffffffffffffffffff1602179055508173ffffffffffffffffffffffffffffffffffffffff168173ffffffffffffffffffffffffffffffffffffffff167f8be0079c531659141344cd1fd0a4f28419497f9722a3daafe3b4186f6b6457e060405160405180910390a35050565b600080fd5b600073ffffffffffffffffffffffffffffffffffffffff82169050919050565b600061019182610166565b9050919050565b6101a181610186565b81146101ac57600080fd5b50565b6000815190506101be81610198565b92915050565b6000602082840312156101da576101d9610161565b5b60006101e8848285016101af565b91505092915050565b6108b2806102006000396000f3fe608060405234801561001057600080fd5b50600436106100575760003560e01c80630d392cd91461005c578063715018a6146100785780638da5cb5b14610082578063c32b72ba146100a0578063f2fde38b146100bc575b600080fd5b61007660048036038101906100719190610503565b6100d8565b005b610080610181565b005b61008a610195565b6040516100979190610552565b60405180910390f35b6100ba60048036038101906100b59190610608565b6101be565b005b6100d660048036038101906100d1919061067c565b610296565b005b6100e0610319565b80600260008473ffffffffffffffffffffffffffffffffffffffff1673ffffffffffffffffffffffffffffffffffffffff16815260200190815260200160002060006101000a81548160ff0219169083151502179055508015158273ffffffffffffffffffffffffffffffffffffffff167ff93f9a76c1bf3444d22400a00cb9fe990e6abe9dbb333fda48859cfee864543d60405160405180910390a35050565b610189610319565b6101936000610397565b565b60008060009054906101000a900473ffffffffffffffffffffffffffffffffffffffff16905090565b600160009054906101000a900473ffffffffffffffffffffffffffffffffffffffff1673ffffffffffffffffffffffffffffffffffffffff16638e760afe85856040518363ffffffff1660e01b815260040161021b929190610707565b602060405180830381865afa158015610238573d6000803e3d6000fd5b505050506040513d601f19601f8201168201806040525081019061025c9190610740565b156102905780827fcbc224e9a9cbaacbf5a864f90c9e0e44f9f1edd5efccf344c09aed189ea1e20d60405160405180910390a35b50505050565b61029e610319565b600073ffffffffffffffffffffffffffffffffffffffff168173ffffffffffffffffffffffffffffffffffffffff160361030d576040517f08c379a0000000000000000000000000000000000000000000000000000000008152600401610304906107f0565b60405180910390fd5b61031681610397565b50565b61032161045b565b73ffffffffffffffffffffffffffffffffffffffff1661033f610195565b73ffffffffffffffffffffffffffffffffffffffff1614610395576040517f08c379a000000000000000000000000000000000000000000000000000000000815260040161038c9061085c565b60405180910390fd5b565b60008060009054906101000a900473ffffffffffffffffffffffffffffffffffffffff169050816000806101000a81548173ffffffffffffffffffffffffffffffffffffffff021916908373ffffffffffffffffffffffffffffffffffffffff1602179055508173ffffffffffffffffffffffffffffffffffffffff168173ffffffffffffffffffffffffffffffffffffffff167f8be0079c531659141344cd1fd0a4f28419497f9722a3daafe3b4186f6b6457e060405160405180910390a35050565b600033905090565b600080fd5b600080fd5b600073ffffffffffffffffffffffffffffffffffffffff82169050919050565b60006104988261046d565b9050919050565b6104a88161048d565b81146104b357600080fd5b50565b6000813590506104c58161049f565b92915050565b60008115159050919050565b6104e0816104cb565b81146104eb57600080fd5b50565b6000813590506104fd816104d7565b92915050565b6000806040838503121561051a57610519610463565b5b6000610528858286016104b6565b9250506020610539858286016104ee565b9150509250929050565b61054c8161048d565b82525050565b60006020820190506105676000830184610543565b92915050565b600080fd5b600080fd5b600080fd5b60008083601f8401126105925761059161056d565b5b8235905067ffffffffffffffff8111156105af576105ae610572565b5b6020830191508360018202830111156105cb576105ca610577565b5b9250929050565b6000819050919050565b6105e5816105d2565b81146105f057600080fd5b50565b600081359050610602816105dc565b92915050565b6000806000806060858703121561062257610621610463565b5b600085013567ffffffffffffffff8111156106405761063f610468565b5b61064c8782880161057c565b9450945050602061065f878288016105f3565b9250506040610670878288016105f3565b91505092959194509250565b60006020828403121561069257610691610463565b5b60006106a0848285016104b6565b91505092915050565b600082825260208201905092915050565b82818337600083830152505050565b6000601f19601f8301169050919050565b60006106e683856106a9565b93506106f38385846106ba565b6106fc836106c9565b840190509392505050565b600060208201905081810360008301526107228184866106da565b90509392505050565b60008151905061073a816104d7565b92915050565b60006020828403121561075657610755610463565b5b60006107648482850161072b565b91505092915050565b600082825260208201905092915050565b7f4f776e61626c653a206e6577206f776e657220697320746865207a65726f206160008201527f6464726573730000000000000000000000000000000000000000000000000000602082015250565b60006107da60268361076d565b91506107e58261077e565b604082019050919050565b60006020820190508181036000830152610809816107cd565b9050919050565b7f4f776e61626c653a2063616c6c6572206973206e6f7420746865206f776e6572600082015250565b600061084660208361076d565b915061085182610810565b602082019050919050565b6000602082019050818103600083015261087581610839565b905091905056fea26469706673582212209a96ed0bdc98a4ee2786b76ca02ae3063a50c65303d5b13cd7d15f3c90af2b6364736f6c63430008120033",
  "linkReferences": {},
  "deployedLinkReferences": {}
}