{
  "_format": "hh-sol-artifact-1",
  "contractName": "TurboVerifier",
  "sourceName": "contracts/plonk_vk.sol",
  "abi": [
    {
      "inputs": [
        {
          "internalType": "bytes",
          "name": "",
          "type": "bytes"
        }
      ],
      "name": "verify",
      "outputs": [
        {
          "internalType": "bool",
          "name": "result",
          "type": "bool"
        }
      ],
      "stateMutability": "view",
      "type": "function"
    }
  ],
  "bytecode": "0x608060405234801561001057600080fd5b50613ee1806100206000396000f3fe608060405234801561001057600080fd5b506004361061002b5760003560e01c80638e760afe14610030575b600080fd5b61004a6004803603810190610045919061384c565b610060565b60405161005791906138b4565b60405180910390f35b60008061006b610201565b905060008160200151905060006100828284610828565b905061008c6134bd565b6100a98460000151856020015183610bc09092919063ffffffff16565b6100b16134d3565b6100ca81866020015184610c219092919063ffffffff16565b6100e381846080015184610cc29092919063ffffffff16565b61010f818460a001518560c001518660e0015187610100015187610d3d9095949392919063ffffffff16565b60008061011d858885610de6565b91509150818561038001818152505061014583886020015186610e769092919063ffffffff16565b6101668386610300015187610320015187610ff9909392919063ffffffff16565b8260200151836000018181525050600061018284838a8961107c565b90506000610192858a848a6111d3565b905060006101a088876116d6565b90506101af8282888b8e611899565b9a508a6101f1576040517f08c379a00000000000000000000000000000000000000000000000000000000081526004016101e89061392c565b60405180910390fd5b5050505050505050505092915050565b610209613557565b610211613557565b6120006000820152600060208201527e6fab49b869ae62001deac878b2667bd31bf3e28e3a2d764aa49b8d9bbdd31060408201527f3062cb506d9a969cb702833453cd4c52654aa6a93775a2c5bf57d6844360800160608201527f1670ed58bfac610408e124db6a1cb6c8c8df74fa978188ca3b0b205aabd95dc960808201527f1e9769794d9c7ee5101caa8c7050dce25cef131f715dfe59761c6aad2b72303960a0820151527f1fe7174c451a9be4f6e7fb584d8896e1ed13d8d819f9795874c2204ea0627e47602060a083015101527f2d8d4d45de9f155674742ebbeeeabdee485c330aab0ed054fc3e2de64be347d760c0820151527f0dbee3e1497930960c03d1cd0bfc288a8fa921241573b6c2622bd4fce8d381aa602060c083015101527f1a6de38bd8c07562af13a9e766a287753b66939915c4391b9f3a1a7027c8786960e0820151527f0a5da4c5f3cb65cc735eeaf476a6902713377eaff2bbcc7f088d15d4256d3adc602060e083015101527f2e971237066bf15de9bd0df8f4fdc6ca534201c1a343f2d2381e46a71a662a35610100820151527f04af7bc4ff119a15a5f74c8918ab1a3849d11f6df13bb1654c424b63b950bc39602061010083015101527f2e971237066bf15de9bd0df8f4fdc6ca534201c1a343f2d2381e46a71a662a35610120820151527f04af7bc4ff119a15a5f74c8918ab1a3849d11f6df13bb1654c424b63b950bc39602061012083015101527f2c5492648b6e635bb75c3260b845ac0f0aa39ae163d065e350d8e460295c97c7610140820151527f205d46c7147497ac56aa9e9a3b61a098c4a76c9ce3514d7c63db5e4da3f2715a602061014083015101527f1dd3e03e6d7626f869bc5bc078b5f98d849ec378fee62e37c377ad92ae1d5b99610160820151527f1179ffa197abb9f2a39301357d14010a95e7812a82cb8b2151833e2feacbd71c602061016083015101527f0ebfb96a8ef406c9336d0ad6cb462c2326de52bb1243da3ec3fbe1ec9310de93610180820151527f22e490ab98b6d20b9785aad8fe5234f63dcdd8814a3848660d839900db207cb6602061018083015101527f2e971237066bf15de9bd0df8f4fdc6ca534201c1a343f2d2381e46a71a662a356101a0820151527f04af7bc4ff119a15a5f74c8918ab1a3849d11f6df13bb1654c424b63b950bc3960206101a083015101527f2e1a01a7d92aec0b22e81c59a72fb12e04f7a4f1e3249bb41c0882285cc1677d6101c0820151527f105664e2518fbde7b4d05f93ef525c85a8ee4b80ac8d7ef1a9f4fa713cf3538660206101c083015101527f2e971237066bf15de9bd0df8f4fdc6ca534201c1a343f2d2381e46a71a662a356101e0820151527f04af7bc4ff119a15a5f74c8918ab1a3849d11f6df13bb1654c424b63b950bc3960206101e083015101527f0ee4288a52e400d75e5eb020909c14e277d7d7b504e2ca1000f430812af8e6e7610200820151527f1228df6ad892e2a3ab310defea6adcf71a69199ab7d26b206110304430d56e07602061020083015101527f1c38ce98ea9c56adc408d100ec8b5eb68464bdeacb2abb243650162bec855776610220820151527f288f7d3504ca151fca0faa454577181c2052b8057832f7d20e35494d2c7c1a60602061022083015101527f169fad7c53bea6492b429fb93fafd9356f7b01ec82bb9f5c2ed1e3dedeec42f6610240820151527f2e80e22478578d9a1b3f326ae3a33fe380eb453162c81ab9ebbcde4448a9ae6b602061024083015101527f24c6d70a2305eb51f23a15bf94fe9798f3ce3cb3031c88f2c968c969ba638f2b610260820151527f0192f789e7f3d990f06998a2a95eb8d923c49dc662f49e7704ddad43b62a461260206102608301510152600061028082015260006102a08201527f260e01b251f6f1c7e7ff4e580791dee8ea51d87a358e038b4efe30fac09383c16102c0820151527f0118c4d5b837bcc2bc89b5b398b5974e9f5944073b32078b7e231fec938883b060206102c083015101527f04fc6369f7110fe3d25156c1bb9a72859cf2a04641f99ba4ee413c80da6a5fe460406102c083015101527f22febda3c0c0632a56475b4214e5615e11e6dd3f96e6cea2854a87d4dacc5e5560606102c083015101528091505090565b610830613675565b60007f30644e72e131a029b85045b68181585d2833e84879b9709143e1f593f0000001905060007f30644e72e131a029b85045b68181585d97816a916871ca8d3c208c16d87cfd4790506000806024600435019150849050856102800151156109915760006020876102a001516108a79190613985565b9050600080600080868501945084359350602085013560441b84019350604085013560881b84019350606085013560cc1b840193506080850135925060a085013560441b8301925060c085013560881b8301925060e085013560cc1b83019250610100850135915061012085013560441b8201915061014085013560881b8201915061016085013560cc1b8201915061018085013590506101a085013560441b810190506101c085013560881b810190506101e085013560cc1b8101905061096f8484611b7c565b8a61034001819052506109828282611b7c565b8a610360018190525050505050505b6020870280830192508360208401350682515283833506602083510152836060840135066020830151528360408401350660208084015101528360a084013506604083015152836080840135066020604084015101528360e0840135066060830151528360c08401350660206060840151015283610120840135066080830151528361010084013506602060808401510152836101608401350660a0830151528361014084013506602060a08401510152836101a08401350660c0830151528361018084013506602060c08401510152836101e08401350660e083015152836101c084013506602060e08401510152836102208401350661010083015152836102008401350660206101008401510152846102408401350661012083015284610260840135066101408301528461028084013506610160830152846102a084013506610180830152846102c0840135066101a0830152846102e0840135066101c083015284610300840135066101e08301528461032084013506610200830152846103408401350661022083015284610360840135066102408301528461038084013506610260830152846103a084013506610280830152846103c0840135066102a0830152846103e0840135066102c083015284610400840135066102e0830152836104408401350661030083015152836104208401350660206103008401510152836104808401350661032083015152836104608401350660206103208401510152505050505092915050565b60006040518360181c60208201538360101c60218201538360081c60228201538360238201538260181c60248201538260101c60258201538260081c6026820153826027820153600860208201209150508084600001818152505050505050565b6000808460000151905060007f30644e72e131a029b85045b68181585d2833e84879b9709143e1f593f0000001905060006040518381526020810190506024600435016020870261010001808284376040516020820180822098508689069550505050505080866060018181525050836000526001602053602160002093508184069050808660800181815250508387600001818152505050505050505050565b6000808460000151905060007f30644e72e131a029b85045b68181585d2833e84879b9709143e1f593f000000190506000604051838152602086015160208201528551604082015260608120945082850691505080866020018181525050808660000181815250508387600001818152505050505050505050565b6000808760000151905060007f30644e72e131a029b85045b68181585d2833e84879b9709143e1f593f00000019050600060405183815260208901516020820152885160408201526020880151606082015287516080820152602087015160a0820152865160c0820152602086015160e082015285516101008201526101208120945082850691505080896040018181525050838a600001818152505050505050505050505050565b600080600080600080600080610dfc898b611bf0565b915091506000806000806000610e168f8f60400151611d8c565b94509450945094509450610e2f87878787878787611e97565b809b50819c50829e50839d5050505050898f610300018181525050505050505050506000610e6184868a86868f611fc7565b90508083965096505050505050935093915050565b60007f30644e72e131a029b85045b68181585d2833e84879b9709143e1f593f000000190506000846000015190506000806024600435016020860281019050610240810190506040518481526101e08260208301376102008120935085840692505050808660c0018181525050816000526001602053836021600020069050808660e00181815250506002602053836021600020069050808661010001818152505060036020538360216000200690508086610120018181525050600460205383602160002006905080866101400181815250506005602053836021600020069050808661016001818152505060066020538360216000200690508086610180018181525050600760205383602160002006905080866101a0018181525050600860205383602160002006905080866101c0018181525050600960205383602160002006905080866101e00181815250506000600a6020536021600020905084810691508187610200018181525050808860000181815250505050505050505050565b6000808560000151905060007f30644e72e131a029b85045b68181585d2833e84879b9709143e1f593f0000001905060006040518381526020870151602082015286516040820152602086015160608201528551608082015260a081209450828506915050808760a0018181525050838860000181815250505050505050505050565b61108461379b565b600061109283858888612036565b905060006110a1848689612282565b905060006110af858961292e565b905060006110bd868a612ad4565b90506000876101c0015190506000886101e0015190506110dc82612d36565b6110e581612d36565b6000604051835181526020840151602082015285604082015260408160608360075afa9150875160408201526020880151606082015260408160808360065afa821691508251604082015260208301516060820152846080820152604080820160606040840160075afa8216915060408160808360065afa82169150865160408201526020870151606082015260408860808360065afa8216915050806111c1576040517f08c379a00000000000000000000000000000000000000000000000000000000081526004016111b890613a39565b60405180910390fd5b86975050505050505050949350505050565b6111db61379b565b60008060007f30644e72e131a029b85045b68181585d2833e84879b9709143e1f593f00000019050604051915060a082016040526000876103000151826112229190613a59565b905060008660a00151905061123681612d36565b805184526020810151602085015281604085015260408460608660075afa94506000896102e00151905060008190508860c00151925061127583612d36565b8251604087015260208301516060870152848483096080870152604080870160606040890160075afa965060408660808860065afa871696508860e0015192506112be83612d36565b8482830991508251604087015260208301516060870152848483096080870152604080870160606040890160075afa8716965060408660808860065afa87169650886101000151925061131083612d36565b8481830991508251604087015260208301516060870152848483096080870152604080870160606040890160075afa8716965060408660808860065afa8716965089925061135d83612d36565b8951604087015260208a0151606087015260408660808860065afa8716965060008c60a00151905060008d60c0015190508a60000151945061139e85612d36565b8660018308915086828209935084516040890152602085015160608901528360808901526040808901606060408b0160075afa8916985060408860808a60065afa891698508d60e0015190508a6020015194506113fa85612d36565b86828209935084516040890152602085015160608901528360808901526040808901606060408b0160075afa8916985060408860808a60065afa891698508d610100015190508a60400151945061145085612d36565b86828209935084516040890152602085015160608901528360808901526040808901606060408b0160075afa8916985060408860808a60065afa891698508d610120015190508a6060015194506114a685612d36565b86828209935084516040890152602085015160608901528360808901526040808901606060408b0160075afa8916985060408860808a60065afa891698508d610140015193508c610200015194506114fd85612d36565b84516040890152602085015160608901528360808901526040808901606060408b0160075afa8916985060408860808a60065afa891698508d610160015193508c6102200151945061154e85612d36565b84516040890152602085015160608901528360808901526040808901606060408b0160075afa8916985060408860808a60065afa891698508d610180015193508c6102400151945061159f85612d36565b84516040890152602085015160608901528360808901526040808901606060408b0160075afa8916985060408860808a60065afa891698508d6101a0015193508c610180015194506115f085612d36565b84516040890152602085015160608901528360808901526040808901606060408b0160075afa8916985060408860808a60065afa8916985061163061379b565b8e6101c0015194508d6101a00151955061164986612d36565b855160408a0152602086015160608a01528460808a01526040808a01606060408c0160075afa8a16995060408160808b60065afa8a169950896116c1576040517f08c379a00000000000000000000000000000000000000000000000000000000081526004016116b890613aff565b60405180910390fd5b809a5050505050505050505050949350505050565b6000807f30644e72e131a029b85045b68181585d2833e84879b9709143e1f593f0000001905060008060008560c00151915086610120015190508384828409840892508560e001519150866101400151905083848284098408925085610100015191508661016001519050838482840984089250856101200151915086610180015190508384828409840892508561014001519150866101a0015190508384828409840892508561016001519150866101c0015190508384828409840892508561018001519150866101e001519050838482840984089250856101a0015191508661020001519050838482840984089250856101c0015191508661022001519050838482840984089250856101e0015191508661024001519050838482840984089250866103800151905083818503840892508560c001519150866102800151905060008482840990508660e001519250876102a0015191508485838509820890508661010001519250876102c0015191508485838509820890508661012001519250876102e00151915084858385098208905087610260015192508483820890508660a001519250848382099050848185089350839550505050505092915050565b6000808460a0015190506000807f30644e72e131a029b85045b68181585d2833e84879b9709143e1f593f000000190506118d161379b565b60008761032001519050600088610300015190506118ee81612d36565b6118f782612d36565b60008a6040015190506000896040015190508582820990508588820990508c86039c506040518e51815260208f015160208201528351604082015260208401516060820152826080820152604080820160606040840160075afa975060408160808360065afa881697508451604082015260208501516060820152816080820152604080820160606040840160075afa8816975060408160808360065afa8816975060016040820152600260608201528d6080820152604080820160606040840160075afa8816975060408660808360065afa881697505050506119d961379b565b60405182518152602083015160208201528351604082015260208401516060820152876080820152604080820160606040840160075afa8716965060408260808360065afa871696505060007f30644e72e131a029b85045b68181585d97816a916871ca8d3c208c16d87cfd47905060208201518103602083015289610280015115611b115760008b6103400151905060008c61036001519050611a7c82612d36565b611a8581612d36565b6040518251815260208301516020820152888b8c09604082015260406060820160608360075afa8a169950815181526020820151602082015260408160608360075afa8a169950875160a0820152602088015160c082015260408860806060840160065afa8a169950845160408201526020850151606082015260408560808360065afa8a1699505050505b86611b51576040517f08c379a0000000000000000000000000000000000000000000000000000000008152600401611b4890613b91565b60405180910390fd5b611b6985611b5d612dcb565b848d6102c00151612e79565b9850505050505050505095945050505050565b611b8461379b565b6000807f30644e72e131a029b85045b68181585d2833e84879b9709143e1f593f0000001850691507f30644e72e131a029b85045b68181585d2833e84879b9709143e1f593f0000001840690506040518060400160405280838152602001828152509250505092915050565b60008060008460800151905060008460400151905060006020808760200151611c199190613985565b611c239190613a59565b90506000808860600151905060008960600151905060006001905060006001905060007f30644e72e131a029b85045b68181585d2833e84879b9709143e1f593f000000190506000600190508160058709955081600786099450602460043501965086880197505b87871015611cee5786358a81018701808701848c8a099850848c8909975060208a01358d81018a01868a8201888a8609099750868988868409099850868e8c099a50868e8b099950868210878610168616955060408c019b505050505050611c8b565b6020880197505b87871015611d3557863582811082169150828b820883818901870995508381888a010186099450838b89099750838b880996505050602087019650611cf5565b80611d75576040517f08c379a0000000000000000000000000000000000000000000000000000000008152600401611d6c90613c23565b60405180910390fd5b83839b509b50505050505050505050509250929050565b6000806000806000807f30644e72e131a029b85045b68181585d2833e84879b9709143e1f593f000000190506000611dc9888a6000015184612f65565b905080896102e001818152505081600183038208905060008960800151905060008a6080015190506000808c60600151905060008060008e905088868a03820894508887870995508889878b038308860994508887870995508889878b038308860994508887870995508889878b038308860994508f604001519550600089858a0990508960018b03830893508987880997508988890997508987890997508960018b038b848b0908925088868286869e509e509e509e509e50505050505050505050509295509295909350565b6000806000806000807f30644e72e131a029b85045b68181585d2833e84879b9709143e1f593f00000019050600060019050604051925061020083016040528c83528a6020840152886040840152876060840152806080840152818351820990508060a0840152816020840151820990508060c0840152816040840151820990508060e084015281606084015182099050611f3181612fb1565b90508160e0840151820982606085015183099150806060850152508160c0840151820982604085015183099150806040850152508160a084015182098260208501518309915080602085015250816080840151820982845183099150808452508183518f0995508160208401518d0996508160408401518b0994508160608401518b099350505050975097509750979350505050565b600080611fd78787878787613061565b90506000611fe587856131a5565b90506000611ff38886613264565b90506000807f30644e72e131a029b85045b68181585d2833e84879b9709143e1f593f0000001905080818486088608915081955050505050509695505050505050565b61203e61379b565b60008360600151905060008460400151905060008560800151905060007f30644e72e131a029b85045b68181585d2833e84879b9709143e1f593f0000001905060008060008b6101200151905060008c6101a001519050848683088581878a8c090894508581878b850908935050505060008b6101400151905060008c6101c00151905084868308858682888c8a60058e09090886099450858682888c8609088509935050505060008b6101600151905060008c6101e00151905084868308858682888c8a60068e09090886099450858682888c8609088509935050505060008b610180015190508384828688888c8a60078e09090808840992505060008960000151905060008a60200151905060008b60a00151905060008e6102600151905060008c9050878588099650878b89878b868b09098a030995508784898688090994508783898a8885098a08089650878486099450848e6000018181525050505050505060008b60800151905060008b610260015190506121bd61379b565b6121c683612d36565b6121cf82612d36565b6000604051845181526020850151602082015286604082015260408160608360075afa91508351604082015260208401516060820152856080820152604080820160606040840160075afa8216915060408360808360065afa82169150508061226d576040517f08c379a000000000000000000000000000000000000000000000000000000000815260040161226490613cb5565b60405180910390fd5b819a5050505050505050505050949350505050565b61228a61379b565b600084610200015190506000856102200151905060008460000151905060008560000151905060008660200151905060007f30644e72e131a029b85045b68181585d2833e84879b9709143e1f593f00000019050600080604051905060a081016040526000808d6101800151905060008e6102e001519050858660048409870382089250505060008d61012001519050809350848885099350848a8509935084868809965084868809965084868809965084828309858a820990508588820990508581860894505060008d60a00151905061236481612d36565b6000604051825181526020830151602082015286604082015260408660608360075afa915050806123ca576040517f08c379a00000000000000000000000000000000000000000000000000000000081526004016123c190613d21565b60405180910390fd5b50505060008d61014001519050809350848885099350848a85099350848988098581860894505060008d60c00151905061240381612d36565b60006040518251815260208301516020820152866040820152604080870160608360075afa915060408660808860065afa821691505080612479576040517f08c379a000000000000000000000000000000000000000000000000000000000815260040161247090613d21565b60405180910390fd5b50505060008d61016001519050809350848885099350848a85099350506000808e6102c0015190508581840991505060008e61014001519050858789099750858183099150858883099150858283089150858a83099150858286089450505060008d6102800151905060008e6101200151905085878909975085818703830891508583830991505060008e6102c001519050858183099150858883099150858a83099150858286089450505060008c60e00151905061253781612d36565b60006040518251815260208301516020820152856040820152604080860160608360075afa915060408560808760065afa8216915050806125ad576040517f08c379a00000000000000000000000000000000000000000000000000000000081526004016125a490613d21565b60405180910390fd5b50505060008c6101600151905060008d6101800151905060008e61024001519050819450858986099450858b86099450858688890989099750858a84098682820990508689820990508681870895505060008e6101000151905061261081612d36565b60006040518251815260208301516020820152876040820152604080880160608360075afa915060408760808960065afa821691505080612686576040517f08c379a000000000000000000000000000000000000000000000000000000000815260040161267d90613d21565b60405180910390fd5b505050505060008c6101800151905060008d61024001519050818503858384099450858186089450858660028803850886099450858986099450858786099450858b860994508581600108868b82099050868382099050868982099050868187089550505060008d610120015190506126fe81612d36565b60006040518251815260208301516020820152866040820152604080870160608360075afa915060408660808860065afa821691505080612774576040517f08c379a000000000000000000000000000000000000000000000000000000000815260040161276b90613d21565b60405180910390fd5b5050505060008c6101200151905060008d61014001519050848183099350848885099350848a85099350505060008c6101600151905060008d61024001519050848688099650848983098582820990508588820990508581860894505060008d610140015190506127e481612d36565b60006040518251815260208301516020820152866040820152604080870160608360075afa915060408660808860065afa82169150508061285a576040517f08c379a000000000000000000000000000000000000000000000000000000000815260040161285190613d21565b60405180910390fd5b5050505061286661379b565b60008b6101e001519050879350848a8509935084818508935084868809975060008d6101600151905061289881612d36565b60006040518251815260208301516020820152866040820152604080870160608360075afa915060408560808860065afa82169150508061290e576040517f08c379a000000000000000000000000000000000000000000000000000000000815260040161290590613d21565b60405180910390fd5b505050868b60000181815250508099505050505050505050509392505050565b60008083610120015190506000846101400151905060008561016001519050600086610180015190506000876102e0015190506000876020015190506000886000015190506000807f30644e72e131a029b85045b68181585d2833e84879b9709143e1f593f0000001905080816004880982038808818260048a0983038a08828360048c0984038c08838460048e098503890884848509858587038208905085600287038608868183099150866003880387089050868183099150868983099150819750868a8a0998508685860991508685880383089150866002880386089050868183099150866003880386089050868183099150868983099150868289089750868a8a0998508684850991508684880383089150866002880385089050868183099150866003880385089050868183099150868983099150868289089750868a8a0998508683840991508683880383089150866002880384089050868183099150866003880384089050868183099150868983099150868289089750868a8a099850505050505050828b600001818152505081995050505050505050505092915050565b6000806000905060007f30644e72e131a029b85045b68181585d2833e84879b9709143e1f593f0000001905060008060008060008060008b6102800151905060008c610120015190508889600483098a0383089550505060008b6102a00151905060008c610140015190508889600483098a038308945088858708975088868709935088858609925088838508965088888909995088878a038b08995050506000808b60200151905060008d610160015190508960028209925089838b038c089a5089828c099a505088828308915088868a03850893508860048709955088868a03850895508860068708955088848709955088868b08995088818b09995088858a03840892508860048609945088858a03840894508860068608945088838609945088858b08995088818b099950886003890995508860038709945088858608975088600489099350888486089450886003880993508860068509965088888a03830897508860518908975088858a03880894508860538608945060008d6101600151905089818a09985089868a08985089818a0998505060008d61018001519050896004820994505060008d6102e00151905089858b03820894505060008d6102400151905089858608935089848608945089858608935089858508935089878b038508935089818509935089878608945089898a08985089898b038608945089848608945089858c089a505060008c60000151905089818c099a50505050505050505050600084600001519050600085602001519050828182099050828182099050828183099150818660000181815250508394505050505092915050565b6000807f30644e72e131a029b85045b68181585d97816a916871ca8d3c208c16d87cfd47905082516020840151826003848585860985090883828309148115831517198483108585101616169350505081612dc6576040517f08c379a0000000000000000000000000000000000000000000000000000000008152600401612dbd90613db3565b60405180910390fd5b505050565b612dd36137b5565b60405180608001604052807f198e9393920d483a7260bfb731fb5d25f1aa493335a9e71297e485b7aef312c281526020017f1800deef121f1e76426a00665e5c4479674322d4f75edadd46debd5cd992f6ed81526020017f090689d0585ff075ec9e99ad690c3395bc4b313370b38ef355acdadcd122975b81526020017f12c85ea5db8c6deb4aab71808dcb408fe3d1e7690c43d37b4ce6cc0166fa7daa815250905090565b6000612e8485612d36565b612e8d83612d36565b6000806040518751815260208801516020820152865160408201526020870151606082015260408701516080820152606087015160a0820152855160c0820152602086015160e08201528451610100820152602085015161012082015260408501516101408201526060850151610160820152602060006101808360085afa925060005191505081612f54576040517f08c379a0000000000000000000000000000000000000000000000000000000008152600401612f4b90613e1f565b60405180910390fd5b600081141592505050949350505050565b600080600190506000859050600060019050600186015b80821015612fa35781871615612f93578583850993505b8583840992508182019150612f7c565b508293505050509392505050565b6000806000807f30644e72e131a029b85045b68181585d2833e84879b9709143e1f593f0000001905060405160208152602080820152602060408201528560608201526002820360808201528160a08201526020600060c08360055afa925060005193505081613056576040517f08c379a000000000000000000000000000000000000000000000000000000000815260040161304d90613e8b565b60405180910390fd5b829350505050919050565b60008060008660200151905060008760600151905060007f30644e72e131a029b85045b68181585d2833e84879b9709143e1f593f000000190506000866102600151905060008a608001519050600088610120015190506000896101400151905060008a6101600151905060008b6101800151905060008c6101a00151905060008d6101c00151905060008e6101e00151905089838c09888801018a838d09898801018b838e098a8801018c8d828409840992508c8b8801840992508c8c840992508c8f84099250828d039f50505050505050505050505060008a60000151905060008a905060008a905060008e90508588890986818a09878186098883860989858b038a088a81830991508a838c038f089d508a828f089d508a848a0998505050505050505050808b600001818152505085965050505050505095945050505050565b600080826102000151905060008361016001519050600084610180015190506000866000015190506000876020015190506000807f30644e72e131a029b85045b68181585d2833e84879b9709143e1f593f000000190508087820382898a0908915080868260048809830308816002838384090982600983098384600786038487030882089050838184099250838785858809099450838688099650838688099650505050838a60000181815250508197505050505050505092915050565b600080836020015190506000808560000151905060007f30644e72e131a029b85045b68181585d2833e84879b9709143e1f593f0000001905060008087610180015190506000886102e0015190506000896102c001519050828503858660048309840894508587876003890388018960018b038a018b60038c0160018d0109090909975085898809965085868884098703890897508589880996505060008a610220015190508a610120015193508a610280015192508a6101400151915060008b6102c0015190506000806000898a858a088808925089888b0385089150898283099150898284099250898a858609850991508986870990508960118b038b838508088a03915089858b888c09099050898182089050898b8b8c848608860809925089838d089b50898d8c099a508e610120015197508e6102a0015196508e610140015195508e6102c00151935060008f610280015190508a8b8a8d0387088c898b080993508a818c038a0892508a878c8c89098d030891508a8b8d8d8587098701098e089c508a8e8d099b508f610240015195508f610180015197508f610160015196508a60018c0389088b888d03820893508b8c8e8609820990508b87820990508b818f089d508b8f8e099c50508a8b8d89098c888c09098b038b818f089d508b8f8e099c50508f610140015198508f610160015197508f610180015196508a86888d03600101098b898b098c0393508b8c888f098583010990508b818f089d508b8f8e099c50508f610220015195508a868e099c5050505050505050505050508086600001818152505081935050505092915050565b6040518060200160405280600080191681525090565b60405180610220016040528060008152602001600081526020016000815260200160008152602001600081526020016000815260200160008152602001600081526020016000815260200160008152602001600081526020016000815260200160008152602001600081526020016000815260200160008152602001600081525090565b604051806103200160405280600081526020016000815260200160008152602001600081526020016000815260200161358e61379b565b815260200161359b61379b565b81526020016135a861379b565b81526020016135b561379b565b81526020016135c261379b565b81526020016135cf61379b565b81526020016135dc61379b565b81526020016135e961379b565b81526020016135f661379b565b815260200161360361379b565b815260200161361061379b565b815260200161361d61379b565b815260200161362a61379b565b815260200161363761379b565b815260200161364461379b565b8152602001600015158152602001600081526020016136616137b5565b815260200160008152602001600081525090565b604051806103a0016040528061368961379b565b815260200161369661379b565b81526020016136a361379b565b81526020016136b061379b565b81526020016136bd61379b565b81526020016136ca61379b565b81526020016136d761379b565b81526020016136e461379b565b81526020016136f161379b565b815260200160008152602001600081526020016000815260200160008152602001600081526020016000815260200160008152602001600081526020016000815260200160008152602001600081526020016000815260200160008152602001600081526020016000815260200161376761379b565b815260200161377461379b565b815260200161378161379b565b815260200161378e61379b565b8152602001600081525090565b604051806040016040528060008152602001600081525090565b6040518060800160405280600081526020016000815260200160008152602001600081525090565b600080fd5b600080fd5b600080fd5b600080fd5b600080fd5b60008083601f84011261380c5761380b6137e7565b5b8235905067ffffffffffffffff811115613829576138286137ec565b5b602083019150836001820283011115613845576138446137f1565b5b9250929050565b60008060208385031215613863576138626137dd565b5b600083013567ffffffffffffffff811115613881576138806137e2565b5b61388d858286016137f6565b92509250509250929050565b60008115159050919050565b6138ae81613899565b82525050565b60006020820190506138c960008301846138a5565b92915050565b600082825260208201905092915050565b7f50726f6f66206661696c65640000000000000000000000000000000000000000600082015250565b6000613916600c836138cf565b9150613921826138e0565b602082019050919050565b6000602082019050818103600083015261394581613909565b9050919050565b6000819050919050565b7f4e487b7100000000000000000000000000000000000000000000000000000000600052601160045260246000fd5b60006139908261394c565b915061399b8361394c565b92508282026139a98161394c565b915082820484148315176139c0576139bf613956565b5b5092915050565b7f636f6d707574655f6c696e656172697365645f6f70656e696e675f7465726d7360008201527f2067726f7570206f7065726174696f6e73206661696c00000000000000000000602082015250565b6000613a236036836138cf565b9150613a2e826139c7565b604082019050919050565b60006020820190508181036000830152613a5281613a16565b9050919050565b6000613a648261394c565b9150613a6f8361394c565b9250828203905081811115613a8757613a86613956565b5b92915050565b7f636f6d707574655f62617463685f6f70656e696e675f636f6d6d69746d656e7460008201527f2067726f7570206f7065726174696f6e73206572726f72000000000000000000602082015250565b6000613ae96037836138cf565b9150613af482613a8d565b604082019050919050565b60006020820190508181036000830152613b1881613adc565b9050919050565b7f706572666f726d5f70616972696e67204731206f7065726174696f6e7320707260008201527f65616d626c65206661696c000000000000000000000000000000000000000000602082015250565b6000613b7b602b836138cf565b9150613b8682613b1f565b604082019050919050565b60006020820190508181036000830152613baa81613b6e565b9050919050565b7f7075626c696320696e70757473206172652067726561746572207468616e206360008201527f697263756974206d6f64756c7573000000000000000000000000000000000000602082015250565b6000613c0d602e836138cf565b9150613c1882613bb1565b604082019050919050565b60006020820190508181036000830152613c3c81613c00565b9050919050565b7f636f6d707574655f6772616e645f70726f647563745f6f70656e696e675f736360008201527f616c61722067726f7570206f7065726174696f6e73206661696c757265000000602082015250565b6000613c9f603d836138cf565b9150613caa82613c43565b604082019050919050565b60006020820190508181036000830152613cce81613c92565b9050919050565b7f473120706f696e74206d756c7469706c69636174696f6e206661696c65642100600082015250565b6000613d0b601f836138cf565b9150613d1682613cd5565b602082019050919050565b60006020820190508181036000830152613d3a81613cfe565b9050919050565b7f426e3235343a20473120706f696e74206e6f74206f6e2063757276652c206f7260008201527f206973206d616c666f726d656400000000000000000000000000000000000000602082015250565b6000613d9d602d836138cf565b9150613da882613d41565b604082019050919050565b60006020820190508181036000830152613dcc81613d90565b9050919050565b7f50616972696e6720636865636b206661696c6564210000000000000000000000600082015250565b6000613e096015836138cf565b9150613e1482613dd3565b602082019050919050565b60006020820190508181036000830152613e3881613dfc565b9050919050565b7f706f7720707265636f6d70696c652063616c6c206661696c6564210000000000600082015250565b6000613e75601b836138cf565b9150613e8082613e3f565b602082019050919050565b60006020820190508181036000830152613ea481613e68565b905091905056fea26469706673582212200eeafc0870dde33d11c0326941b9f4d3e79bbca6d571df35d5625978b783924264736f6c63430008120033",
  "linkReferences": {},
  "deployedLinkReferences": {}
}